:020000040002F8
:10000000A835002015010200270102002901020085
:1000100000000000000000000000000000000000E0
:100020000000000000000000000000002B010200A2
:1000300000000000000000002D0102002F0102005E
:1000400031010200310102003101020031010200E0
:100050003101020000000000314002002D0E0200BC
:1000600031010200310102003101020031010200C0
:1000700031010200310102003101020031010200B0
:10008000310102009D340200310102003101020001
:10009000BF340200E14302008B3C02003101020048
:1000A00031010200310102000000000000000000E8
:1000B0000000000000000000000000000000000040
:1000C0000348854605F014F800480047EF0A02008F
:1000D000A8350020401E00BF00BF00BF00BF00BF0A
:1000E00000BF00BF00BF00BF00BF00BF00BFF1D115
:1000F00070470000401E00BF00BF00BF00BF00BF30
:1001000000BF00BF00BF00BF00BF00BF00BFF1D1F4
:1001100070470000074802680F210A430260064842
:10012000804706480047FEE7FEE7FEE7FEE7FEE7FA
:10013000FEE7000024050040D7010200C1000200D4
:100140002E482F49086070472E48008CC0B2012805
:1001500010D12C48808C0007000F0BD12948806AF1
:10016000F0210840402805D12648C06A084201D144
:10017000012070470020FCE72248008CC0B2012813
:1001800027D12048808C0007000F22D11D48806AAB
:10019000F021084205D11B48C06A084201D1012064
:1001A00070471848806AF0210840102805D115488A
:1001B000C06A084201D10120F2E71248806AF021AA
:1001C0000840302805D10F48C06A084201D10120FB
:1001D000E6E70020E4E710B5FFF7CEFF002805D0E2
:1001E00009480A494860C81309498861FFF7ACFF0C
:1001F000002802D001200749886010BD0024F400C7
:1002000000240020C00F00F0DFFF07C00005004001
:10021000006C00400006004030B513048C002343FE
:100220000524240707252D0264198500635130BD7C
:10023000132000F092FC74DF00F00FFD03F0FEFCD1
:10024000FE4804F01AFA122000F087FC6421FB48F3
:1002500004F06BF900F06FFC70B505460C461646CD
:100260002078FF2801D1FFF7E3FF70BD00F063FCA9
:1002700004460D462A462146F148FFF7F7FF70B5C0
:10028000002201210904EF48006803F0E2F9044666
:1002900000BF2546002D05D000BFEBA2DA2128467D
:1002A000FFF7E4FF00BF002201210904E9480068CC
:1002B00003F0CFF9044600BF2546002D05D000BF4E
:1002C000E1A2DD212846FFF7D1FF00BF70BD70B568
:1002D000E14873DF044600BF2546002D05D000BF6E
:1002E000D9A2E7212846FFF7C1FF00BF70BD10B5B6
:1002F000DA49098888B200F03FFCFFF7E8FF10BD3B
:1003000010B5044600F0C8FD10BD30B585B00546F7
:1003100000F0D0FF684601F0EAF96846407CD04919
:10032000087008460178CF4801F0DAFD00240BE0A0
:100330006846007C001B401E40006A46115AC948AE
:1003400001F0FDFD601CC4B26846007CA042EFDCF9
:1003500001F0DFF905B030BDF8B500BF0020C24B99
:1003600005221146009003F0AEF8054600BF2E4668
:10037000002E06D000BFB4A2FF2123313046FFF784
:1003800075FF00BF00BFB94A0121AE4803F01AF95A
:10039000044600BF2546002D06D000BFAAA2FF21BB
:1003A00029312846FFF762FF00BFB14A0121A94861
:1003B00003F008F9044600BF2546002D06D000BF13
:1003C000A1A2FF212F312846FFF750FF00BFF8BD43
:1003D0003EB500BF6846007801090901491C00913B
:1003E00068460078F02188431030009000BF0D224D
:1003F000A0A168467CDF044600BF2546002D06D03C
:1004000000BF91A2FF2142312846FFF72FFF00BF16
:100410009C4878DF044600BF2546002D06D000BF6B
:1004200089A2FF2145312846FFF720FF00BF0020A9
:1004300077DF044600BF2546002D06D000BF82A20C
:10044000FF2149312846FFF711FF00BF002001902E
:100450000290FF219131684681804900C1800021CE
:100460000181FF219131418101A87ADF044600BF5B
:100470002546002D06D000BF73A2FF215331284628
:10048000FFF7F4FE00BF3EBD30B593B006210391E7
:100490007D4A07CA6B4607C33C2104A804F08BFCC5
:1004A00002200490012168464175018303A9079148
:1004B0000321818569460C91002104A802F09AFB72
:1004C000044600BF2546002D06D000BF5EA2FF21D6
:1004D00074312846FFF7CAFE00BF14215E4804F0BD
:1004E0006AFC00205C49087048600872192080018D
:1004F0000882B420488213B030BD30B59DB00321CE
:100500000291142118A804F056FC00201890002134
:1005100018A8017102A81A9000BF18A8007B010951
:100520000901491C18A80173007BF0218843103091
:1005300018A9087300BF00BF18A8407B000900017C
:10054000487318A8407BF021884318A9487300BF5E
:1005500000BF18A8807B00090001887318A8807B61
:10056000F021884318A9887300BF00BF18A8C07B7A
:1005700001090901491C18A8C173C07BF0218843F7
:10058000103018A9C87300BF00BF18A8007C00096C
:100590000001087418A8007CF021884318A9087489
:1005A00000BF304801F066FC044600BF2546002D20
:1005B00006D000BF24A2FF219F312846FFF756FE38
:1005C00000BF142113A804F0F6FB00BF10A8407E62
:1005D00001090901491C10A84176407EF021884399
:1005E000103010A9487600BF00BF13A8807B000917
:1005F0000001401C13A9887313A8807BF021884355
:10060000103013A9887300BF00BF13A8C07B000976
:100610000001C87313A8C07BF021884313A9C873D5
:1006200000BF00BF10A8007F01090901491C10A8E4
:100630000177007FF0218843103027E004B00200EA
:10064000EFBEADDE202400202E2E5C6D61696E2E83
:100650006300000024240020AC2800202C2400206B
:1006600028240020C0280020B82500200103020013
:100670000B03020043533031322048524D20563193
:100680003100000041030000D851020010A9087792
:1006900000BF00201390012110A8017400201590C4
:1006A000642110A8017613A9FB4801F0C3FD04469C
:1006B00000BF2546002D06D000BFF84AFF21B1310A
:1006C0002846FFF7D3FD00BF00200190F4480190B9
:1006D00001A9F44801F067FF044600BF2546002D3C
:1006E00006D000BFED4AFF21BB312846FFF7BEFD13
:1006F00000BF402103A804F05EFBEBA103A802F0B9
:10070000DFFA00BF10A8007A01090901491C10A8EE
:100710000172007AF0218843103010A9087200BFDE
:1007200000BF12A840780009000112A9487012A861
:100730004078F021884312A9487000BF03A801F057
:1007400027F9044600BF2546002D06D000BFD34A36
:10075000FF21C7312846FFF789FD00BF1DB030BD1E
:1007600070B505462868002811D13B21D348008880
:1007700076DF044600BF2646002E06D000BFC74ADB
:10078000FF21DC313046FFF771FD00BF00E000BF04
:1007900000BF70BD044600BFC04AFF21EC312046B7
:1007A000FFF764FD30B587B01C21684604F003FBF9
:1007B000002000900520C0030190029003216846AC
:1007C0000173BF4881896846C18100210174BD4819
:1007D0000590BD480690684603F053F8044600BFF4
:1007E0002546002D05D000BFAC4AB8492846FFF782
:1007F0003DFD00BF07B030BD10B5FFF778FD10BD5F
:1008000010B504462078002810D001281DD160784A
:10081000032802D0072806D102E000F030FA03E0F6
:10082000FFF7EAFF00E000BF00BF0EE06078072896
:1008300005D0802806D1204600F06EFC03E0FFF7CB
:10084000DBFF00E000BF00BF00BF00BF10BD70B500
:10085000044600252088102806D0112808D0132827
:100860000DD0192824D11DE0A0889449088020E0EB
:100870000020C0439149088000F0EFF919E0002200
:1008800085218E4800887FDF054600BF2E46002E5A
:1008900006D000BF814A952189003046FFF7E6FC6B
:1008A00000BF06E0A079002801D1FFF710FD00E0AD
:1008B00000BF00BF70BD10B504462146804801F05E
:1008C00096F92146744801F0B8FB2146754801F0BD
:1008D00047FE204603F0A9F82046FFF7B8FF10BDF9
:1008E00070B503F0E6FA044600BF2546002D06D099
:1008F00000BF6A4A0521C9012846FFF7B7FC00BFBF
:1009000070BD70B504460D46012D11D1082C02D0E2
:10091000102C05D102E000F0AAFE08E0FFF788FCE9
:1009200000BF5E4AA52189002046FFF79FFC00BF5B
:1009300070BD70B500BF6649012003F0DEFB0446C0
:1009400000BF2546002D06D000BF544A5F499D31A7
:100950002846FFF78BFC00BF00BF032200210820C0
:10096000FFF75AFC032211461020FFF755FC00BF89
:100970000023584A0221584803F058FA044600BFA1
:100980002546002D06D000BF444A5049B1312846C3
:10099000FFF76CFC00BF00BF70BD70B500BF002347
:1009A00050224E49082003F020F9054600BF2E468C
:1009B000002E06D000BF394A4449BB313046FFF70C
:1009C00055FC00BF00BF464803F044F9044600BF91
:1009D0002546002D06D000BF304A3C49BF3128468D
:1009E000FFF744FC00BF3F4803F03DF9044600BF59
:1009F0002546002D06D000BF284A3449C331284679
:100A0000FFF734FC00BF70BD70B53DDF044600BF8A
:100A10002546002D06D000BF204A2D210901284679
:100A2000FFF724FC00BF70BDF8B504462004860F14
:100A3000A004870E2006800E0090A507AD0F032DA1
:100A400000D12D1F2B4639463046009A04F086F817
:100A5000F8BD10B50024032211460720FFF7DCFB88
:100A60007D20C000FFF736FB07201F490969C14000
:100A7000C907C90F002939D103F0BFFF0124E403DE
:100A8000272000020443042004430320044320469B
:100A9000FFF7CAFF00BFFEE710290020480602004A
:100AA00059020200282900204E6F72646963536561
:100AB0006D69636F6E647563746F72000424002047
:100AC000C028002061070200950702000202000012
:100AD0004828002066060000082400205C2800202A
:100AE000B7080200010802000005005010BDFFF722
:100AF000B0FFFFF731FC122000F026F8132000F0C1
:100B000023F8FFF716FF1748006817490860FFF73A
:100B100044FFFFF75DFCFFF7B7FCFFF7EEFCFFF7C4
:100B200041FEFFF7E4FBFFF7AAFBFFF7D9FE00BF8A
:100B3000FFF76AFFFCE7BFF34F8F0C480C49C86012
:100B4000BFF34F8F00BFFEE70121052212070723E5
:100B50001B02D2188300D150704701218140054A01
:100B600091607047801000102C2400200400FA05CA
:100B700000ED00E00005005070B505469E490020DC
:100B8000CCDF044600BF2646002E06D000BF9BA245
:100B90004A213046FFF76AFB00BF00BF00BF0020BC
:100BA0009949086099490860994908600120994964
:100BB000086000BF00231A461021C2DF044600BFB0
:100BC0002646002E06D000BF8CA251213046FFF7EA
:100BD0004DFB00BF00BF0523782229460120D3DF4B
:100BE000044600BF2646002E06D000BF83A25F2128
:100BF0003046FFF73BFB00BF00BF39210120CDDFAE
:100C0000044600BF2646002E06D000BF7BA262210C
:100C10003046FFF72BFB00BF00BF7F490120D1DF2B
:100C2000044600BF2646002E06D000BF73A26521F1
:100C30003046FFF71BFB00BF00BF0120C4DF0446A6
:100C400000BF2646002E06D000BF6CA268213046A9
:100C5000FFF70CFB00BF00BF70BD70B50024012082
:100C6000C5DF044600BF2546002D06D000BF63A2A5
:100C700071212846FFF7FAFA00BF00BF70BD70B5BA
:100C800063480068401C6249086060480068401C76
:100C90005E49086008460068412803D004205F4987
:100CA000087049E00020594908605A480068042843
:100CB00002D101205749086056480068012804D035
:100CC000022817D0032827D11DE051490968F622D0
:100CD000514308467D21090104F01CF80446012017
:100CE0004E4908704C702004000E88702002000EDF
:100CF000C8701AE00220494908704870CD208870F9
:100D0000AB20C87011E003204449087000204870EF
:100D100088700220C87008E000BF38A2AA213D48B0
:100D20000068FFF7A3FA00BF00BF00BF39480068A2
:100D3000401C3849086000BF334800682030324901
:100D40000860364800788021884334490870084696
:100D500000782D4909688022114008432F49087006
:100D60000A4608210120C7DF054600BF2C46002C9B
:100D700006D000BF21A2BA212046FFF777FA00BFB4
:100D800000BF70BD77B585B0059804F013F905462E
:100D9000234A244B04F02EF80022234B01910090AB
:100DA00004F028F80391029004F012F984B21B4970
:100DB0008C702012C870069804F0FCF8184A194B81
:100DC0000191009004F016F805460022164B04F03D
:100DD00011F80391029004F0FBF884B20F490C71F2
:100DE000201248716846007FC87108468079401C0F
:100DF000887108B070BD0000E45102002E2E5C68BE
:100E0000726D5F74782E6300382400203C2400202B
:100E10004424002040240020861F000030240020AD
:100E2000FCA9F1D24D62503F00009040F8B56048F7
:100E3000006800282FD000205D4908605D48806868
:100E4000C5B201205C4948604B210901694308464D
:100E5000FF2103F075FF41004018FF300F3086B2CC
:100E6000304600F05BF807463946544801F003FA73
:100E70000446002C0ED0082C0CD05148844209D0D6
:100E80005048844206D000BF4FA254212046FFF7AD
:100E9000EDF900BF00BFF8BD70B501204E494860B4
:100EA0001820444948600020414908600120414918
:100EB0000860072027DF044600BF2546002D06D026
:100EC00000BF41A26A212846FFF7D0F900BF00BF4A
:100ED0000321072028DF044600BF2546002D06D049
:100EE00000BF39A26D212846FFF7C0F900BF00BF3F
:100EF000072023DF044600BF2546002D06D000BF93
:100F000031A270212846FFF7B1F900BF00BF0020D1
:100F10002749086001202849086070BD70B5044663
:100F20002E48844201DB642540E02C48643884422A
:100F30000BDD2A49091B3A2251430846642103F07C
:100F4000FFFE6421081AC5B230E0254884420CDD5A
:100F500022496439091B182251430846A02103F095
:100F6000EFFE2A21081AC5B220E01E4884420CDD9B
:100F70001B49091B0C2251430846FF212D3103F068
:100F8000DFFE1221081AC5B210E0174884420CDDBA
:100F90001449091B062251430846FF21553103F02D
:100FA000CFFE0621081AC5B200E00025284670BD14
:100FB00000710040007500400070004010290020C2
:100FC00003300000013400002E2E5C6261747465F1
:100FD00072792E630000000000730040B80B00001F
:100FE000B40A0000880900003408000070B55249B6
:100FF0000020CCDF044600BF2546002D06D000BFF0
:101000004EA231212846FFF731F900BF00BF00236F
:101010001A4640211846C2DF044600BF2546002D6F
:1010200006D000BF45A238212846FFF71FF900BFB0
:1010300000BF0023782219461846D3DF044600BFBC
:101040002546002D06D000BF3CA23F212846FFF7D1
:101050000DF900BF00BF39210020CDDF044600BFDD
:101060002546002D06D000BF34A243212846FFF7B5
:10107000FDF800BF00BF34490020D1DF044600BFA7
:101080002546002D06D000BF2CA247212846FFF799
:10109000EDF800BF00BF70BD70B500240020C4DFB4
:1010A000044600BF2546002D06D000BF23A25221D2
:1010B0002846FFF7DBF800BF00BF70BD70B5002405
:1010C0000020C5DF044600BF2546002D06D000BF26
:1010D0001AA259212846FFF7C9F800BF00BF70BD0A
:1010E0003EB50446A07A69460872684607C8FFF70D
:1010F00049FEE578284680218843030004F04EF835
:10110000050607080904050004E000BF00BF00BF92
:1011100000BF00BF00BF3EBD70B50446E5784E2D50
:1011200002D04F2D05D100E000BFA01CFFF7D8FF73
:1011300000E000BF00BF70BD482400202E2E5C6878
:10114000726D5F72782E6300861F000070B50022FA
:10115000F84C2478A400F84D2B59F84C24881C1B1B
:10116000F74D2C802C462488FF250F35AC4272DDCC
:10117000F34C2488F34DAC426DDAF14C2488F24DE7
:10118000AC4203DD9624F14D2C8016E0EC4C248813
:10119000FF25F535AC4203DD6424EC4D2C800CE0DA
:1011A000E74C2488FF259135AC4203DD3224E74D1E
:1011B0002C8002E01E24E54D2C80E14D2D88E44E6C
:1011C0003688AC1B01D4254600E06542DF4E3688E8
:1011D000B54217DADF4C2478641CDE4D2C70DE4CEF
:1011E0002478002C05D02C4624780F2C0DDB02220D
:1011F0000BE0D84C2478052C07DB0124D64D2C704D
:10120000012202E00024D34D2C70012A24D10024B5
:10121000D04D2C70002106E0C94C24884D00CF4EE3
:1012200074534C1CE1B20829F6DBC54D2C88E51738
:101230006D0F2D196D05280EC14C24882418C84D3A
:101240002C80BF4C2488241AC64D2C800024C64D07
:101250002C80C64D2C7026E0022A24D1C44D2C8847
:10126000E517AD0F2D19AD05280E0024B94D2C70D2
:101270000424C04D2C70C04D2C88E5176D0F2D191E
:101280006D05280EAE4C24882418B54D2C80AC4C2E
:101290002488241AB34D2C800024B34D2C80B34DE8
:1012A0002C70B64D2C70A54C2360A54C2488A84DFD
:1012B0002C8070BDF0B585B000209E490870B04804
:1012C0000078401CAE490870084600780A2802DB06
:1012D0000020A6490870AFE1FFF738FF9548007875
:1012E0008000A8490D5893480078401C9149087027
:1012F000A5480088281AA049088097480078002847
:101300007ED09748008898490988401887B2954848
:10131000008895490988401A80B200908948874220
:1013200000DD0746FF210F310098884201DA0846A8
:10133000009091480088B8427EDA8F480188009872
:10134000814279DD91480078401C90490870084638
:101350000078082801DD082008708D480078401CBE
:101360008B49087008460078042802DD00207E4979
:101370000880002415E00620001B40007749085A29
:101380000721091B4900754A50520620001B4000E6
:101390008049085A0721091B49007E4A5052601CA7
:1013A000C4B2072CE7DB744800886C490880724897
:1013B0000688B6027D21C900304603F0ABFC064624
:1013C00074490E80002074490880002409E0600000
:1013D0006249085A7049098840186F490880601CA2
:1013E000C4B2082CF3DB6C490888C117490F0918EF
:1013F000C9105F4A118011460888C117490F00E0E3
:1014000018E10918C910654A11805A480078002867
:101410002CD1574800881146098840185049088047
:101420005348008811460988401A4E49088051489F
:101430000078002806D000E048E04E480078401EC2
:101440004C4908704A4800884B21C90088420DDD8C
:10145000434800885149098840184149088041485B
:1014600000884E490988401A3E4908804048018852
:101470004B4803F065FC4B490870434800688542BF
:1014800004D9029540480068019003E03E48006896
:1014900002900195434800786946087301A807C87F
:1014A000FFF770FC2E4800882649884202DD084676
:1014B0002B4908802B480088FF210F31884202DA2F
:1014C00008462849088030480560B5E02A48008869
:1014D0002349098888422CDD00202D4908702348C3
:1014E0000078012805D020480088C01D1E490880CA
:1014F00010E01F4800887D21C900884205DB1A489A
:101500000088C01D1849088004E017480088C01CE6
:1015100015490880164800887D21C900884245DDAC
:1015200013490888C117890F091889101E4A1180AC
:101530005DE069E069240020642A0020582400202E
:101540007A240020E1050000EE0200008024002043
:101550007C240020602400206824002044290020EE
:1015600082240020842400205E2400206D2400209A
:10157000662400206E240020782400206B240020A4
:101580006C24002064290020542400206A240020B8
:101590005C240020542900206224002064240020C0
:1015A00060EA0000502400207E2400205B48008870
:1015B000FF217831884208DB58490888C117490F54
:1015C0000918C910564A118011E054480088FF21BB
:1015D0004B31884208DB51490888C117090F0918A7
:1015E00009114F4A118002E00A204D4908804D48F8
:1015F00000884B490988884203DD494800884949E9
:1016000008804948056017E048480088484909882B
:10161000884211DA47480078401C4649087000208B
:101620004549087043480078052805DB01204349F7
:10163000087001E03C48056041480078414909785C
:10164000884200DA48E600203D4908703D490870AC
:10165000002408E00020A1003B4A5050A1003B4A72
:101660005050601CC4B2402CF4DB05B0F0BDFEB598
:10167000374802F04AF83648006836490968884217
:1016800005D93348006833490968471A04E03148EE
:1016900000682F490968471A2F48874226D32C48EB
:1016A000006803F087FC05462C4A2D4B03F00AFC2A
:1016B0000191009003F08CFC0446224800788000E1
:1016C00021490C501F480078800020490C501D48CB
:1016D0000078401C1B49087008460078402801DB50
:1016E000002008701A4800681A490860FEBD0021F1
:1016F00006E04A001B4B9A5A4B00C2524A1CD1B218
:101700000829F6DB184A12780274184A12784274D3
:1017100070470020144908707047000066240020BC
:101720007E2400205E240020542400207824002001
:10173000842400206B2400206C2400206D240020D1
:10174000692400208624002064290020642A0020C7
:101750007024002074240020E82200006468542AC9
:1017600062624040542900206A2400205024002056
:1017700070B504460D4600BF002D01D0012000E0E9
:1017800000200646002E05D100BFE6A23321FEF759
:101790006DFD00BF00BF00BF002C01D0012000E0A4
:1017A00000200646002E05D100BFDEA23421FEF740
:1017B0005DFD00BF00BF2878207029882879FF23AD
:1017C0001B02194000200206080A104360702879A5
:1017D0001B022968194000200204080C1043A07065
:1017E00029791B022868184000210902000E0843CD
:1017F000E07028792071287A6071190CA868084077
:10180000000AA0710902A8680840000CE07170BDD0
:10181000F8B505460E46002400BF002E01D0012079
:1018200000E000200746002F05D100BFBDA24B21DC
:10183000FEF71CFD00BF00BF00BF002D01D001203E
:1018400000E000200746002F05D100BFB5A24C21C3
:10185000FEF70CFD00BF00BF32782046611CCCB201
:101860002A542919708800F054F90019C4B22919B2
:10187000B08800F04EF90019C4B22919F08800F0C0
:1018800048F90019C4B200BF072C01D1012000E0C3
:1018900000200746002F05D100BFA2A25421FEF769
:1018A000E5FC00BF00BFF8BDF0B58FB007460D46A0
:1018B00014461E4600BF002D01D0012000E000208C
:1018C00000900098002805D100BF96A26D21FEF778
:1018D000CDFC00BF00BF00BF002C01DD012000E0F7
:1018E000002000900098002805D100BF8DA26E2135
:1018F000FEF7BCFC00BF00BF1C2107A803F05BFA89
:101900006946087F02218843801C694608770020C9
:1019100008900A900B900C900D9000BF012108A830
:1019200081766846078700BF0020019031786846BD
:10193000017171784171807906218843811C684664
:1019400081718079082188430146684681718079D8
:101950001021884301466846817180794108490019
:1019600068468171142102A803F025FA0EA802909E
:1019700001A8039068460482002141828482069572
:1019800002AA07A974480088149BA2DF0FB0F0BD1B
:101990007FB5044600BF0121684681736F4981818C
:1019A00000BF6D4A03A90120A0DF0546002D02D02B
:1019B000284604B070BD208800280DDD68480090DE
:1019C000228823463C3367486168FFF76DFF054670
:1019D000002D01D02846ECE7208900280EDD624862
:1019E0000090228923463C335E48401FE168FFF7A0
:1019F0005BFF0546002D01D02846DAE7208A002843
:101A00000EDD5A480090228A23463C335548001F79
:101A10006169FFF749FF0546002D01D02846C8E758
:101A2000208B00280EDD52480090228B23463C3349
:101A30004C48801EE169FFF737FF0546002D01D0B5
:101A40002846B6E7208C00280EDD4A480090228CFC
:101A500023463C334348C01E616AFFF725FF054615
:101A6000002D01D02846A4E7208D00280EDD424835
:101A70000090228D23463C333A48401EE16AFFF72E
:101A800013FF0546002D01D0284692E7206B002861
:101A900013D001A8216BFFF76BFE384823463C3377
:101AA000082201A900902F48801FFFF7FDFE054680
:101AB000002D01D028467CE700BF606B00280FD0C6
:101AC0002F480090606B027923463C33016825481B
:101AD000401CFFF7E9FE0546002D01D0284668E7C7
:101AE000A06B002813D001A8A16BFFF791FE254839
:101AF00023463C33072201A900901A482730FFF7FC
:101B0000D3FE0546002D01D0284652E700BF002035
:101B10004FE702460A70FF20000210400012487092
:101B2000022070472E2E5C2E2E5C2E2E5C2E2E5CFC
:101B30002E2E5C536F757263655C626C655C626CC3
:101B4000655F73657276696365735C626C655F641B
:101B500069732E6300000000882400200A1800002A
:101B60008A240020292A0000922400209A240020A0
:101B7000A2240020AA240020B2240020BA2400209D
:101B8000C2240020CA2400208A88028470470022D0
:101B9000D2430284704738B505460C46208B022894
:101BA00017D12868002814D000BF00BFA17EE27EB4
:101BB000120211430846C107C90F002902D00020B4
:101BC000009001E001200090694628462A6890476D
:101BD00000BF38BD70B504460D46AE1D3188A089E2
:101BE000814203D131462046FFF7D5FF70BD70B565
:101BF00005460C462088102804D0112807D050280C
:101C00000FD109E021462846FFF7BEFF0AE0214632
:101C10002846FFF7BCFF05E021462846FFF7DAFF1C
:101C200000E000BF00BF70BDF7B582B004461746A4
:101C30000020019001256079002803D0042101983B
:101C4000084301902220005D002803D00221019862
:101C5000084301900398FF280ADD012101980843F9
:101C600001907919039800F0AAF94019C5B205E06E
:101C70000398C2B22846691CCDB23A544C20005B8E
:101C8000002803DD1021019808430190002618E088
:101C9000A81C14280BD94C20005B801B420070004C
:101CA00023462433C118184603F05EF80DE0791975
:101CB000720023462433985A00F081F94019C5B2C6
:101CC000761C4C20005BB042E2DC00BF4C20005B85
:101CD000801B81B24C20015301983870284605B012
:101CE000F0BD30B595B005460C4600200D9000BF04
:101CF00008A8007D01090901491C08A80175007D9B
:101D0000F0218843103008A9087500BF217B08A87E
:101D10004175807D06218843811C08A881751C219E
:101D20000EA803F048F808A8007E10218843103060
:101D300008A9087600200F90119012900DA813901A
:101D40000020149000BF012168468177A04981835B
:101D500000BF00200690617B68460176A17B41763A
:101D6000807E06218843811C68468176807E08211A
:101D70008843014668468176807E1021884301466B
:101D800068468176807E41084900491C6846817614
:101D9000142108A803F00FF807A8089006A80990D6
:101DA00001AA00212846FFF73FFF0146684601854A
:101DB000002141851421818501A80C90E8882B46DB
:101DC000083308AA0EA9A2DF15B030BD30B58FB018
:101DD00005460C461C2108A802F0EDFF08A908786A
:101DE00002218843801C08A90870002009900B90EC
:101DF0000C900D900E9000BF0121684681727449CD
:101E0000491C018100BF00200190E17B68460171FF
:101E1000217C4171807906218843811C684681714B
:101E200080790821884301466846817180791021B4
:101E300088430146684681718079410849006846B7
:101E40008171142103A802F0B6FF02A8039001A833
:101E500004900121684681820021C1820121018311
:101E6000A0680790E8882B46103303AA08A9A2DFD0
:101E70000FB030BDF8B504460E46306820603079AA
:101E800060710020C04320840021222001554C2095
:101E9000015300BF0121684681704E49018000BF97
:101EA000A21D69460120A0DF0546002D01D028466D
:101EB000F8BD31462046FFF714FF0546002D01D03E
:101EC0002846F5E7B068002808D031462046FFF7DD
:101ED0007DFF0546002D01D02846E9E70020E7E711
:101EE000F0B58BB004460F46208C3B49884222D087
:101EF00006AA39462046FFF797FE064605960020BB
:101F0000019002900390049021896846818001210C
:101F100081710021018105A8039006A80490208CFE
:101F200001A9A6DF0546002D04D16846808AB0428B
:101F300000D00C2500E0082528460BB0F0BD70B598
:101F400004460D464C20005B14280AD12622A11815
:101F5000881E02F009FF4C20005B401E81B24C201D
:101F600001534C20015B005B401C82B24C200253A9
:101F7000490020462430455270BD01464C20405A4D
:101F8000142801D1012070470020FCE70246108C84
:101F9000114B984202D15171002070470820FCE794
:101FA00022221154704713B582B0044601200190DB
:101FB000208A03AB01AA0021A4DF04B010BD0246B1
:101FC0000A70FF2000021040001248700220704783
:101FD000372A00000D180000FFFF00008A884282A7
:101FE00070470022D24342827047F8B504460E463D
:101FF000207D002820D0B51D2988608981421AD112
:10200000288B022817D12068002814D000BF00BFF9
:10201000A97EEA7E120211430846C107C90F0029B2
:1020200002D00020009001E0012000906946204687
:102030002268904700BF00BFF8BD70B505460C464A
:102040002088102804D0112807D050280FD109E08B
:1020500021462846FFF7C2FF0AE021462846FFF73F
:10206000C0FF05E021462846FFF7BFFF00E000BFA4
:1020700000BF70BDF0B591B004460D46207D00282C
:1020800019D00020099000BF08A8007901090901B2
:10209000491C08A801710079F0218843103008A973
:1020A000087100BF697B08A84171807906218843C7
:1020B000801C08A988711C210AA802F07CFE08A8CF
:1020C000007A02218843811C08A80172007A10213D
:1020D0008843217D002901D0012100E00021090170
:1020E00010221140084308A9087200200B900D909F
:1020F0000E90207D002801D009A800E000200F905C
:102100000020109000BF01216846817377498181CA
:1021100000BF00200290A97B68460172E97B4172F2
:10212000807A06218843811C68468172807A082162
:102130008843014668468172807A102188430146AF
:1021400068468172807A4108490068468172297B1D
:102150000191142104A802F02EFE03A8049002A805
:10216000059001216846018300214183012181837B
:1021700001A80890A088A31D04AA0AA9A2DF064608
:10218000002E02D0304611B0F0BDA86800284DD016
:1021900000BF0121684681735549818100BF00203D
:1021A0000290287C6946087200BF6846407A01099F
:1021B000090168464172407AF021884369464872B5
:1021C00000BF6846807A06218843811C6846817278
:1021D000807A08218843014668468172807A1021FE
:1021E0008843014668468172807A41084900684602
:1021F0008172A96800F046FD0746142104A802F088
:10220000DAFD03A8049002A8059068460783002120
:102210004183018B81830890E08822460E3204A915
:10222000A3DF0646002E03D03046ACE70020E08155
:102230000020A8E7F8B504460D4628682060002075
:10224000C043608228792075FF20207400BF0121DF
:10225000684681702749018000BF221D6946012020
:10226000A0DF0646002E01D03046F8BD29462046A4
:10227000FFF700FFF9E733B585B004460025207C61
:102280006946097E88422FD0012104916846007E6C
:102290002074E08806AB04AA0021A4DF0546002DC7
:1022A00002D0284607B030BD608A1349884219D051
:1022B000207D002816D0002000900190029003900D
:1022C00001210491E188684601800121817000218B
:1022D000818004A8029006A80390608A6946A6DF60
:1022E000054600E0082500BF2846DBE7192A000064
:1022F000082900000F180000FFFF00008A88828272
:1023000070470022D2438282704770B504460E4661
:10231000B51D2988208A814213D1288B022810D12B
:1023200000BF00BFA97EEA7E120211430846C10722
:10233000C90F002902D00120A0750FE00020A07570
:102340000CE02888A188884208D1A069002805D01F
:102350002A8B29461A312046A369984770BD30B5AB
:102360008FB004460D460020079000BF6846007FEE
:1023700001090901491C68460177007FF021884363
:1023800010306946087700BF00BF6846407F0109EA
:102390000901491C68464177407FF021884310308D
:1023A0006946487700BF6846807F06218843811CC4
:1023B000684681771C2108A802F0FDFC08A8007877
:1023C00010218843411808A80170002009900B9043
:1023D0000C9007A80D9000200E902178684681711E
:1023E000032181800020009000BF68460078010929
:1023F0000901491C684601700078F02188431030BB
:102400006946087000BF00BF6846407801090901AD
:10241000491C684641704078F02188431030694675
:10242000487000BF6846807806218843811C684652
:1024300081708078082188430146684681708078E1
:102440001021884301466846817080784108490020
:10245000491C68468170142102A802F0ACFC01A856
:1024600002906846039001210182002141821421DB
:102470008182608823460C3302AA08A9A2DF0FB02C
:1024800030BD30B58FB004460D461C2108A802F0BF
:1024900092FC08A8007808218843411808A8017018
:1024A000007804218843011D08A8017000200990CC
:1024B0000B900C900D900E9021786846817202214D
:1024C00001810020019000BF6846007901090901DF
:1024D000491C684601710079F02188431030694633
:1024E000087100BF00BF6846407901090901491C15
:1024F000684641714079F02188431030694648713F
:1025000000BF6846807906218843811C6846817136
:1025100080790821884301466846817180791021BD
:102520008843014668468171807941084900491C09
:1025300068468171142103A802F03DFC02A80390B3
:1025400001A804900121684681820021C1821421E2
:1025500001836088231D03AA08A9A2DF0FB030BD44
:1025600070B505460C46002D01D0002C00D170BD81
:102570002088102804D0112807D050280FD109E056
:1025800021462846FFF7BAFE0AE021462846FFF713
:10259000B8FE05E021462846FFF7B7FE00E000BF81
:1025A00000BF00BFE3E770B586B004460E46334B6C
:1025B0000FCB01AD0FC5002C01D0002E02D10E2093
:1025C00006B070BD0020C043A0823068A06100202A
:1025D000A075214601A862DF0546002D01D02846DE
:1025E000EEE721786846817501218182A21C05A948
:1025F0000120A0DF0546002D01D02846E0E7314646
:102600002046FFF7ACFE0546002D01D02846D7E74F
:1026100031462046FFF735FF0546002D01D02846FC
:10262000CEE70020CCE737B584B004460D46002C39
:1026300002D10E2007B030BDA08A1149884202D0D5
:10264000A07D002801D10820F4E76846008B1428FB
:1026500001DD0720EEE7002000900190029003903A
:10266000A18968460180039506A802900121684669
:102670008170A08A6946A6DFDCE70000EC51020009
:10268000FFFF0000F7B584B004460F4606980678B1
:10269000B01C1F2803DC2079801C1F2802DD0C20C1
:1026A00007B0F0BD1F20801B801E85B20295B11CB3
:1026B000781802A97DDF03900398002801D00398C1
:1026C000EEE72068022808D168460089A84204DCA9
:1026D00009200190684605890BE0082001902079C7
:1026E000002804D02079A84201DC257901E0684661
:1026F0000589681CC2B23046711CCEB23A543046CD
:10270000721CD6B20199395406980178A81C081891
:10271000C1B2069801700020C2E7F8B505460C4624
:102720002078001D1F2801DD0C20F8BD684679DFE8
:102730000646002E01D03046F7E703212278501CD0
:102740002070A95419212278501C2070A954207897
:1027500041196846008800F08AFA217840182070F4
:102760000020E2E7F8B505460F4616461C466868A5
:10277000002801D10720F8BD2078801C2988401846
:102780001F2801DD0C20F6E72878401CC1B2227812
:10279000501C2070B1542178481C207077542A882E
:1027A00023789819696802F0DFFA207829784018B0
:1027B00020700020DFE730B503461078C01C1F28CA
:1027C00001DD0C2030BD02241578681C10704C55BA
:1027D0000A241578681C10704C551578681C107008
:1027E0004B550020EEE7FFB587B006461D46109C0E
:1027F0000020069020780590002747E0B900706817
:1028000041180A886846028149884181002203A94B
:1028100002A864DF04900498002802D004980BB04A
:10282000F0BD6846017B099881422ED106980028A8
:1028300001D0002000E00220019020786946097B49
:102840004118019808181F2801DD0C20E7E70698B9
:10285000002809D12078401C20702278511C08984B
:102860002170A854012006902078421903A902A8DB
:1028700064DF04900498002801D00498CFE7207802
:102880006946097B4018207000BF7F1C3088B84221
:10289000B4DC0698002806D021780598401C081A58
:1028A000C1B2059829540020B9E7FFB581B00746A9
:1028B00015460A9E009602223846049B0299FFF7AD
:1028C00092FF0446002C02D0204605B0F0BD0096D1
:1028D000102229463846049BFFF785FF0446002C4A
:1028E00001D02046F1E70020EFE7014608880628DE
:1028F00008DB08881922D201904205DD0888E04AE9
:10290000904201D0072070474888062808DB488895
:102910001922D201904205DD4888D94A904201D05F
:102920000720F0E70888D64A904208D048889042AD
:1029300005D008884A88904201DD0720E3E700209F
:10294000E1E7F8B506460D4614462078801D1F289D
:1029500001D90C20F8BD3046FFF7C7FF0746002F0E
:1029600001D03846F6E705212278501C2070A95482
:1029700012212278501C2070A954227851193088D5
:1029800000F075F92178401820702278511970886C
:1029900000F06DF92178401820700020DAE7F8B5D2
:1029A00005460E4614462879801CC7B22078801C44
:1029B000C0191F2801DD0C20F8BD781CC1B2227897
:1029C000501C2070B154FF212278501C2070B1544B
:1029D00022789119288800F04AF92178401820704F
:1029E000A88800280EDDA868002801D10720E3E7A9
:1029F000AA8823789819A96802F0B6F9207829796D
:102A0000401820700020D7E7FEB507460E46144652
:102A1000786B002801D10720FEBD0020019032E034
:102A2000796B0C22019850430D182879801CC0B294
:102A300000900098401CC1B22278501C2070B15404
:102A400016212278501C2070B154227891192888C0
:102A500000F00DF9217840182070A88800280EDDBC
:102A6000A868002801D10720D6E7AA8823789819FA
:102A7000A96802F079F92078297940182070019826
:102A8000401CC0B201903820C15D01988142C7DC72
:102A90000020C1E7F8B504460F4616460025002081
:102AA00030702068002809D0324639462046FFF7AA
:102AB000E9FD0546002D01D02846F8BD60790028C3
:102AC00008D031463846FFF728FE0546002D01D0D4
:102AD0002846F2E7208900280BDD33463A460121DB
:102AE00020460830FFF73EFE0546002D01D028465F
:102AF000E3E7206900280BD0002021690856324600
:102B00003946FFF758FE0546002D01D02846D4E788
:102B1000A08A00280CDD3B46062202212046143004
:102B20000096FFF7C2FE0546002D01D02846C4E7F7
:102B3000A08B00280CDD3B460722032120461C30D9
:102B40000096FFF7B2FE0546002D01D02846B4E7F7
:102B5000A08C00280CDD3B46152214212046243091
:102B60000096FFF7A2FE0546002D01D02846A4E7F7
:102B7000E06A002809D032463946E06AFFF7E1FEF4
:102B80000546002D01D0284697E7206B002809D084
:102B900032463946206BFFF702FF0546002D01D073
:102BA00028468AE73820005D002809DD324639468C
:102BB0002046FFF729FF0546002D01D028467CE777
:102BC00028467AE701460889002807D0C868002807
:102BD00004D0C86800780422104201D10720704751
:102BE0000020FCE701460889002801DD0720704726
:102BF0000020FCE7F3B593B00D460021129111912E
:102C00001398002814D01398FFF7DCFF0446002C1B
:102C100002D0204615B0F0BD12AA09A91398FFF7FB
:102C200039FF0446002C01D02046F3E709AE00E04E
:102C30000026002D13D02846FFF7D4FF0446002CB1
:102C400001D02046E6E711AA01A92846FFF722FF96
:102C50000446002C01D02046DCE701AF00E000274D
:102C600010A803793A46017A304672DFD2E702466D
:102C70000A70FF20000210400012487002207047C6
:102C8000FFFF0000F8B505460E46002432782146C5
:102C9000641C6A5472782146641C6A5400BF022C7A
:102CA00001D1012000E000200746002F05D100BF20
:102CB00008A22021FDF7DAFA00BF00BF2046F8BDC8
:102CC00070B504460D46284602F080F82080656005
:102CD00070BD00002E2E5C2E2E5C2E2E5C2E2E5CE7
:102CE0002E2E5C536F757263655C626C655C626C02
:102CF000655F73657276696365735C626C655F734B
:102D000072765F636F6D6D6F6E2E630010B5002875
:102D100019DAFE4A03071B0F083B9B089B00D25899
:102D20008307DC0EFF23A3409A438B071B0E840707
:102D3000E40EA3401A43F54B0407240F083CA408F3
:102D4000A4001A5118E0F24A03231B02D218830888
:102D50009B00D2588307DC0EFF23A3409A438B07C6
:102D60001B0E8407E40EA3401A43E94B03242402FC
:102D70001B198408A4001A5110BD10B50446E5487B
:102D8000846003211120FFF7C1FF10BD10B50120A1
:102D90000004E1494860E04940394860112000F0F2
:102DA000D4FC112000F0C3FC0120DC4908602F2076
:102DB000FDF7A0F910BD10B5112001218140D44AC2
:102DC0008032116000BF01200004D3498860D249DD
:102DD000403988600120D14948602F20FDF78AF9E9
:102DE00010BDF0B5024628205043CD4B1B68C118DA
:102DF000CC480068401C02D1CA48026057E0C9486C
:102E00008B68006828246043C54C246800198068DA
:102E1000834217D8C348006828235843C04B1B6817
:102E2000C01880688B68C31ABE48006828246043B5
:102E3000BB4C246800198360BA4800684862B948EE
:102E4000026034E08B68B74D2C6828680DE02825B7
:102E50004543B34E3668AD19AD685B1B0446282563
:102E60004543AF4E3668AD19686A451C07D0282522
:102E70004543AB4E3668AD19AD689D42E7D3451C5E
:102E80000CD028254543A64E3668AD19AD68EE1A1C
:102E900028254543A24F3F68ED19AE608B6048621C
:102EA000282565439E4E3668AD196A6200BFF0BDA5
:102EB00070B502469B4C2168084609E0904200D15B
:102EC00008E0014628244443954D2D686419606A42
:102ED000441CF3D100BF441C00D170BD814209D114
:102EE000904C246828256C438D4D2D686419646AC4
:102EF0008C4D2C6028244443894D2D686419A368A7
:102F000028244443864D2D686419656A28244C435F
:102F1000834E3668A419656228244C43804D2D6881
:102F20006419606A441C0CD0282444437C4D2D68ED
:102F30006419A468E51828244443794E3668A41916
:102F4000A56000BFC9E710B5112000F0F7FB10BD68
:102F500010B5142000F0F2FB10BD70B504467248A5
:102F60000068002813D0704A216AE069126890470F
:102F7000054600BF2E46002E07D000BF6BA2FF21E2
:102F800055313046FDF772F900BF00BF02E0E1693C
:102F9000206A884770BDF8B562480068401C39D087
:102FA000002700F004FC04466C480168204600F04D
:102FB00001FC06465B48056811E028206843584933
:102FC00009684418A068B04200D90AE0A068361A1F
:102FD000A068C719656A2046FFF7BFFF00BF681CDD
:102FE000EBD100BF5E4800785E490978884209D17C
:102FF0005C480078401CC0B25A490870022801D1D0
:103000000020087057480078800057490F50FFF79C
:103010009FFF00BFF8BD014651480078514A127821
:1030200090421DD04E480078401C4D4A107010460A
:103030000078022801D100201070494800788000F3
:10304000494A10580860454A086812688018434A7F
:103050001060104600680002000A106001207047EE
:103060000020086000BFFAE7FEB52E480068019016
:103070003E48007800903FE00098C0003C49096855
:103080004418257834E01820684361680F18681CDC
:10309000C5B2A078A84200D100253868022802D025
:1030A000032822D10EE02821786848431C4909688A
:1030B0004618307E002804D07868FFF7F9FE00201B
:1030C000307613E00CE01749096828225143144A6E
:1030D0001268881800210176124A416A116000BF07
:1030E00010480068401CEED100E000BF00BF00BFE8
:1030F0006078A842C7D100BF0098411EC9B20091B4
:103100000028B9D107480168019833E01CED00E0C0
:1031100000E100E0001501404013014000100140B3
:10312000D4240020E0240020F42400202E2E5C2E45
:103130002E5C2E2E5C2E2E5C2E2E5C536F757263D1
:10314000655C6170705F636F6D6D6F6E5C617070F8
:103150005F74696D65722E6300000000E424002036
:10316000F0240020F1240020E8240020D9240020AD
:10317000DC240020814201D00120FEBD0020FCE7BC
:10318000F0B50346002426E0FE4E366828277E432D
:10319000FD4F3F68F01986689E4203D98668F61A8B
:1031A00086601CE086689B1B866834190026866052
:1031B0000676F44E3568F34F466A3E604669002E47
:1031C00008D00E193602360AC660466906611668CE
:1031D0004662156000BFEB480068401CD4D100BFB8
:1031E000F0BDFEB50746E74800680290E748007862
:1031F000019069E00198C000E549096845185CE064
:10320000781C07D03E4628207043DF4909684418DF
:10321000676A23E02978182359436A685018297887
:10322000491C29702978AA78914201D1002129707E
:10323000466828217143D44A12688C180168012914
:1032400002D1217E002900D037E08168E160C168A9
:103250002161016961614169216200BFCD49E06876
:103260000968401A0002000ACB49884208D2C949BD
:10327000E068096800F09EFA21694018A06011E03A
:10328000C448E168006800F095FA00902169009850
:10329000814204D921690098081AA06001E0002049
:1032A000A06000BF0020E060206101202076801E29
:1032B00060623046FFF795FD00BF781CA0D12878EA
:1032C000697888429CD100BF0198411EC9B2019122
:1032D00000288FD1AB4801680298814201D00120BB
:1032E000FEBD0020FCE7FEB50546A6480068401C70
:1032F00034D0A448006828214843A34909684018ED
:10330000866800F054FA0290A248046821460298A8
:1033100000F050FAC01C0190681C01D1FFF736FD87
:103320000198B04201D2304600E00198041924020D
:10333000240A20469949086000BF00F038FA00903E
:103340000299009800F036FAC71C2046029900F056
:1033500031FA874201D9FFF7F6FD01E0FFF72BFDB7
:10336000FEBDFEB50020C04301908A480468854830
:1033700007686846FFF74FFE0546FFF775FE0646ED
:10338000002D05D001AA21460098FFF7F9FE01267D
:103390000198FFF726FF002800D00126002E02D05A
:1033A0003846FFF7A0FFFEBD4170704770B502467A
:1033B0000B465078411C9078884200D1002110784B
:1033C000884201D1002070BD1960507818267043E2
:1033D00055682C182046F6E7FFB581B005460E4625
:1033E0001746E9006A4A126888186946FFF7DEFF47
:1033F0000446002C02D1042005B0F0BD012020605D
:10340000666000F0D4F9A060E760049820610A9833
:103410006061E9005E4A126888180099FFF7C4FFEE
:10342000FFF796FD0020E7E7F8B504460E46E100F9
:10343000574A126888186946FFF7B8FF0546002DFD
:1034400001D10420F8BD022028606E60E100504ADE
:10345000126888180099FFF7A7FFFFF779FD002091
:10346000F0E738B50446E100494A12688818694611
:10347000FFF79CFF0546002D01D1042038BD032035
:103480002860001F6860E100414A126888180099AE
:10349000FFF78AFFFFF75CFD0020EFE710B5002083
:1034A0003F49086000213E4841608160C1600020C2
:1034B0003B49403908604860FFF76DFD10BD10B50D
:1034C000FFF74FFF10BDFFB581B00E4617461C46F3
:1034D00020468107890F01D1012100E00021002948
:1034E00002D1072005B0F0BD002C01D10720F9E77B
:1034F000FFF761FC2B490A9808602B4806702248A8
:10350000046000250CE00021282068431E4A126850
:103510001150282068431C4A1268801801766D1CDF
:10352000B542F0DB282070430419032017490870C6
:1035300017480460183400250CE0E900144A1268AA
:103540008818002101704170877044601821794308
:103550000C196D1C032DF0DB0020C04309490860E5
:1035600000201249087012490870142000F0EDF88C
:1035700003211420FFF7CAFB142000F0D8F80198AB
:1035800018E00000E0240020D4240020D9240020EA
:10359000DC240020E4240020FFFF7F0040150140D0
:1035A00040110140F4240020D8240020F024002001
:1035B000F1240020FFF7E1FB00F0F9F880490860F2
:1035C00000208FE770B503460C467E48006800284F
:1035D00001D1082070BD002A01D10720FAE7002B95
:1035E00001D10720F6E700211CE028204843754D53
:1035F0002D682858002814D1012528204843714EF1
:1036000036683550282048436E4D2D684019446077
:10361000282048436B4D2D684019C2611960002075
:10362000D8E7491C684800788142DEDB0420D1E7F6
:1036300010B500F092F8012802D0032804D101E06F
:10364000002403E0012401E0022400BF00BF204663
:1036500010BDFEB504460D4616465A4800680028BF
:1036600001D10820FEBD58480078844201D2052DC2
:1036700001D20720F6E7282060435249096808581C
:10368000012801D00820EDE7282060434D49096852
:1036900040184068012801D1284600E00020074674
:1036A000FFF7C6FF3B462A46214600960190FFF7EA
:1036B00093FED7E770B5044642480068002801D160
:1036C000082070BD40480078844201D30720F8E705
:1036D000282060433B4909680858012801D0082088
:1036E000EFE7FFF7A5FF05462146FFF79DFEE8E758
:1036F00010B534480068002801D1082010BDFFF73C
:1037000097FF0446FFF7ADFEF8E710B5044600F05A
:103710004EF82060002010BD70B505460E461446D8
:103720003146284600F046F82060002070BDC206F1
:10373000D20E01219140254A11607047C206D20E77
:1037400001219140224A11607047C206D20E012128
:1037500091401F4A80321160704710B51D48406883
:10376000C105C90D002920D00A46103A104600288C
:103770000DDA184B1C330407240F083CA408A400DE
:103780001B598407E40EE3401B069B0F0BE00F4B15
:10379000032424021B198408A4001B598407E40E87
:1037A000E3401B069B0FD8B210BD0420FCE70A487B
:1037B000406870470246501A0002000A7047000035
:1037C000E4240020D4240020D824002000E100E0DC
:1037D00000E200E000ED00E00015014001464888ED
:1037E000B74A1288904206DB4888B54A5288904210
:1037F00001DC012070470020FCE738B50546B148E0
:103800000088B14988423BD0B0480078401CAF499D
:103810000870AF48007B097888420FDBA849A948A7
:10382000008875DF0446002C07D0A948806900286D
:1038300003D0A74881692046884721E00020A3499A
:103840000870A348007C00280FD03B219D480088C9
:1038500076DF0446002C07D09D488069002803D0FD
:103860009B4881692046884700BF994840690028E5
:1038700006D000200090964841696846884700BFFE
:1038800038BD70B505461C222946914801F06CFAF6
:10389000002090490870286800280BD0082288482A
:1038A000296801F061FA86487ADF0446002C08D0C6
:1038B000204670BD82487BDF0446002C01D02046A4
:1038C000F7E70020C0437F49088000207F49087047
:1038D000814A00218148FFF775FEEAE710B57F486D
:1038E0000068FFF7E7FE10BD38B57D48FFF776FFAB
:1038F000002829D17748007800280AD07448406908
:10390000002820D00020009071484169684688470F
:1039100019E06E480078002802D16D48456801E042
:103920006B488568002229466C480068FFF791FEC5
:103930000446002C07D066488069002803D06448FC
:103940008169204688470AE061484069002806D01E
:10395000012000905E4841696846884700BF00200A
:103960005C49087038BD10B50446A08855490880E8
:10397000082221460E315A4801F0F6F90020534939
:1039800008705348C089002801D1FFF7ADFF10BD72
:1039900070B505460020C0434A49088000204B49C5
:1039A00008704E480068FFF785FE0446002C07D0DB
:1039B00047488069002803D04548816920468847E8
:1039C00070BD70B50546AC1D20884149C989884243
:1039D00020D1208B02281DD100BF00BFA17EE27E36
:1039E000120211430846C107C90F002902D0FFF790
:1039F0007BFF0FE039480068FFF75CFE0646002EAB
:103A000007D033488069002803D0314881693046A7
:103A1000884700BF70BD10B504460822A11D30487C
:103A200001F0A2F9FFF760FF10BD10B50446208831
:103A3000102806D0112808D012280ED0502810D1F6
:103A400007E02046FFF78FFF0CE02046FFF7A0FFBE
:103A500008E02046FFF7B5FF04E02046FFF7DBFF54
:103A600000E000BF00BF10BD38B504460822214663
:103A7000134801F079F912487ADF0546002D1CD170
:103A80001748FFF7ABFE00280BD101201149087041
:103A90000B490C48008875DF054601200B4908706A
:103AA0000BE00B484069002806D001200090084830
:103AB00041696846884700BF0025284638BD000098
:103AC000FA24002004250020FFFF0000022500202A
:103AD000642B0020F8240020FB3702001025002072
:103AE0000625002070B506460C4615462946204698
:103AF000FCF7BEFB70BDF8B571480078002800D116
:103B0000F8BD70480068002801D1012000E00020C5
:103B100005466D480068002801D1012000E0002022
:103B200006466A480068002801D1012000E0002014
:103B3000074600BF002D14D168464EDF0446052C11
:103B400001D101250CE0002C06D000BF60A2692144
:103B50002046FCF78BFB03E05A4900980968884728
:103B600000BF002E1AD16848008800906946674857
:103B7000006860DF0446052C01D101260DE0002C11
:103B800006D000BF52A280212046FCF76FFB04E064
:103B90005E4800684C490968884700BF002F19D16A
:103BA0005A480268921C0168491C0068C1DF04463B
:103BB000052C01D101270DE0002C06D000BF44A246
:103BC00098212046FCF752FB04E0504800683F492A
:103BD00009688847002D04D0002E02D0002F00D0A5
:103BE00000E0A7E700BF00BF8AE7FFB581B00C4641
:103BF00016461F46002C02D1072005B0F0BD204616
:103C00008107890F01D1012100E00021002901D1A4
:103C10000720F2E73D4804603B4806803C480760C7
:103C20003C49019810DF0546002D01D02846E4E705
:103C3000012023490870162023DFDEE710B511DFCD
:103C40000446002C01D0012000E000201C4908702F
:103C5000204610BD0146002901D10E2070471A48A8
:103C600001600020FAE70146002901D10E207047CB
:103C7000164801600020FAE70146002901D10E2014
:103C80007047104801600020FAE770B520480068CE
:103C9000002811D01E4800688047044600BF254612
:103CA000002D07D000BF0AA2FF2133312846FCF7C0
:103CB000DDFA00BF00BF01E0FFF71DFF70BD00008F
:103CC000142500202C250020242500202825002054
:103CD0002E2E5C2E2E5C2E2E5C2E2E5C2E2E5C53F9
:103CE0006F757263655C73645F636F6D6D6F6E5C3F
:103CF000736F66746465766963655F68616E646C32
:103D000065722E6300000000202500201C25002085
:103D100018250020E53A0200F8B504460D46904803
:103D20000068002813D0EAB221788D4BA0681B6888
:103D30009847064600BF3746002F06D000BF89A22D
:103D400028213846FCF792FA00BF00BF0CE0012D95
:103D500004D120780121A268904705E0002D03D10D
:103D600020780021A2689047F8BDF8B5074669465B
:103D70008848007800F0CFFA0646002E00D0F8BD43
:103D8000002533E00C2068438349096844188348C0
:103D9000006822780121914008420FD0A0680028D5
:103DA0000CD06078012804D100212046FFF7B4FF31
:103DB0001AE001212046FFF7AFFF15E07748406881
:103DC00022780121914008420ED0A06800280BD033
:103DD0006078012804D101212046FFF79DFF03E010
:103DE00000212046FFF798FF681CC5B26C48007898
:103DF0008542C7DB00BFC2E770B504460D4669487F
:103E00000068FFF757FC0646002E00D070BD6348DF
:103E100044600560204628430246634801686148C3
:103E20000068FFF716FC064600BFEFE7FFB583B05A
:103E300006460C461746052F02D2072007B0F0BDF4
:103E4000554806605648047057480760444906982C
:103E50000860002516E00C21614388190278009261
:103E600041680191019989000522120707231B026D
:103E7000D318009A9200995000BF02780121914016
:103E80000D4300BF2046611ECCB20028E3D1474B52
:103E90002A4629463F4800F069F902900298002816
:103EA00001D00298CAE7424A00213E48FFF78AFB48
:103EB000C4E710B538480068002801D1082010BDBB
:103EC0003448007800F097F9F9E710B532480068F7
:103ED000002801D1082010BD2E48007800F0FAF922
:103EE0000446002C01D02046F5E72E480068FFF775
:103EF000E1FBF0E7F8B505460C460C20684326497F
:103F00000968471824480068002801D10820F8BD36
:103F100069462048007800F0FEF90646002E01D0E0
:103F20003046F4E7787800280AD10098E840C007C6
:103F3000C00F02D0002020700FE0012020700CE0A4
:103F40007878012809D10098E840C007C00F02D056
:103F50000120207001E0002020700020D7E7000041
:103F60003C2500202E2E5C2E2E5C2E2E5C2E2E5CF0
:103F70002E2E5C536F757263655C6170705F636F4A
:103F80006D6D6F6E5C6170705F627574746F6E2EB4
:103F90006300000040250020302500204825002037
:103FA000342500204425002038250020F93D02005A
:103FB0006B3D0200F0B502460C46002035E00123BF
:103FC0008340194623460B422ED0D5680D4205D1B9
:103FD00001235B04D5680D43D56004E003231B0473
:103FE000D5688D43D56005252D0707263602AD1906
:103FF0008600AD5903263604B54305263607072744
:104000003F02F6198700F55105252D0707263602D0
:10401000AD198600AD591D430526360707273F0217
:10402000F6198700F55100BF401C2028C7D3F0BD0A
:10403000FEB5E14806690020E049C863002527E095
:1040400014206843DE49096844180120A840DD496E
:10405000096808421AD0E068C043704021680840EF
:10406000074639462046FFF7A5FFA068B043384011
:1040700000906068304038400190009901980843F2
:1040800003D0226900990198904700BF681CC5B20F
:10409000CD4800788542D3DBFEBD10B50146002037
:1040A00028E014224A43C64B1B689A5801238340D8
:1040B0001A421ED00522120707231B02D2188300C2
:1040C000D25803231B049A4305231B070724240209
:1040D0001B1984001A510522120707231B02D2184C
:1040E0008300D25805231B07072424021B198400D0
:1040F0001A51401C2028D4D310BD70B505460C467B
:10410000002C01D1072070BD20468107890F01D105
:10411000012100E00021002901D10720F3E7A84890
:104120000460AA4805700020A7490870A5490860E6
:10413000A6480078142250430146A148006800F0C8
:104140003AFE0020C043A249886006200121814038
:10415000A04A116000BF012100F0F7F806200121FC
:1041600081409D4A116000BF0020CCE7F8B50446AD
:104170000D4616461F4692480068002801D10820C7
:10418000F8BD002F01D10720FAE78F4800788F494A
:104190000978884201DB0420F2E7284630438A4947
:1041A000097814225143864A126850508648007894
:1041B00014214843824909684018456082480078C4
:1041C000142148437E490968401886607E4800787B
:1041D000142148437A490968401807617A480078F1
:1041E000207079480078401C774908702078FFF7E4
:1041F00054FF0020C4E7F0B502467148006800286B
:1042000001D10820F0BD70480078824201DB072010
:10421000F8E70020694BD86367480469694800687B
:10422000002802D158066A4B586001209040654B27
:104230001B681843634B1860002314205043604DE3
:104240002D684019C360002140E001238B401846CF
:10425000142353435A4D2D68EB58034235D025465D
:10426000054202D003231B040EE001235B04142546
:104270005543534E3668AD19ED6805431426564331
:104280004F4F3F68F619F56005252D0707263602C2
:10429000AD198E00AD5903263604B5430526360701
:1042A00007273F02F6198F00F55105252D07072630
:1042B0003602AD198E00AD591D4305263607072776
:1042C0003F02F6198F00F55100BF491C2029BCD3CD
:1042D000002097E710B5044639480068002801D14E
:1042E000082010BD38480078844201DB0720F8E739
:1042F0002046FFF7D2FE0120A040324909688143E1
:10430000304801600068002803D10120C00730490F
:1043100088600020E5E710B50246294800680028BB
:1043200001D1082010BD28480078824201DB072017
:10433000F8E714205043224C246803191E480069F2
:104340001C68204008600020ECE710B5002819DA4E
:10435000224A03071B0F083B9B089B00D258830788
:10436000DC0EFF23A3409A438B071B0E8407E40E49
:10437000A3401A43194B0407240F083CA408A400C7
:104380001A5118E0144A03231B02D21883089B0019
:10439000D2588307DC0EFF23A3409A438B071B0EE2
:1043A0008407E40EA3401A430B4B032424021B1979
:1043B0008408A4001A5110BD00050050406100405F
:1043C0005025002054250020592500205825002084
:1043D0000063004080E200E000E100E01CED00E04E
:1043E00010B5184800780121484016490870164851
:1043F0000068002804D008460078134909688847F7
:1044000010BDF8B505460F4616460F480660152044
:1044100027DF0446002C01D02046F8BD2946152090
:1044200028DF0446002C01D02046F6E7152023DFC4
:104430000446002C01D02046EFE73946032049DF2F
:10444000EBE700005C2500206025002070B50346E6
:104450000C46002A01D18C4D00E015882846002129
:1044600011E0051206023543A8B25D5C68400506FE
:104470002D0F684005034540A8B205062D0D6D00BF
:1044800068404D1CA9B2A142EBDB70BD02217F4AFE
:10449000516000BF7E4909680029FBD07B498860D4
:1044A00000BF7B4909680029FBD00021774A516091
:1044B00000BF774909680029FBD070470122734B80
:1044C0005A6000BF724A1268002AFBD0016000BF28
:1044D0006F4A1268002AFBD000226C4B5A6000BF62
:1044E0006B4A1268002AFBD0704770B504460D462F
:1044F00000E03DDF674800780028FAD101206349D9
:10450000486000BF624800680028FBD0256000BFFB
:104510005F4800680028FBD000205C49486000BF6D
:104520005B4800680028FBD070BD70B504460D469E
:1045300029462046FFF7D9FF002070BDF8B5054693
:104540000E461746002407E0A00031582846FFF722
:10455000CCFF2D1D601C84B2BC42F5DB0020F8BDF1
:1045600070B5044601200007006980B2604305462B
:104570002846FFF78BFF002070BDF7B584B01546C5
:1045800001200007006980B20499484307463C4671
:10459000A90000220598FFF759FF039020680190B9
:1045A000019880B2029003990298884202D10020BB
:1045B00007B0F0BD3846FFF769FF241D241D002613
:1045C00007E0B200059881582046FFF777FF241DC9
:1045D000761CAE42F5DB2946381DFFF786FF2E49D3
:1045E00003980843019038460199FFF77EFF0020A9
:1045F000DEE7F7B586B007461446012000070069DC
:1046000080B278430490049D286803900398000CBE
:104610000004019020490198884204D000202070B5
:10462000052009B0F0BD2D1D287820702D1D2078A3
:10463000800005902946059A079800F095FB2078A0
:10464000810000220798FFF701FF06461248304319
:10465000029003990298884201D00520E1E70020EA
:10466000DFE7024601200007006980B2504308607E
:104670000020704707490870704710B5044620466F
:10468000FFF704FF10BD0000FFFF000000E5014040
:1046900000E40140642500200000DE45F8B5FE4836
:1046A00000780607360FFC484778022E01D8252FE0
:1046B00001DD0020F8BD002E0BD13A46F749F6483F
:1046C000801C00F08AFB002801D10120F2E70020C5
:1046D000F0E7012E01D10F2500E05525002408E068
:1046E000ED49A01C085CA84201D00020E2E7601C54
:1046F000C4B2BC42F4DB0120DCE70320E849886057
:104700000020E8490860E84908610120E74908619C
:1047100000BFE54800690028FBD00020E24908619D
:10472000E24948600860E2490880704710B5E148F6
:1047300000788007800F14D1DE480068000A00026C
:104740000FD1DC48007840B204280ADCD948007850
:1047500040B22721C943884203DBD74800780328A9
:1047600001D9042010BDFFF7C8FFD2480068D34923
:10477000C860D148007808610846406A000A000213
:1047800048620846406ACE490968090E0843CB4989
:104790004862CB4800680002C8610120086300201D
:1047A000C862C84800780002C74909780843C3496D
:1047B0004863C64800780004C549097809020843DF
:1047C000C44909780843BD494861C3480078400698
:1047D000C249097809060843C14909880904084300
:1047E000C0490978090208432530B449886100208E
:1047F000B8E70021B14A40321160BB490968AF4AAD
:104800009163BA490968D163B94909684900891CAB
:104810009160A14951600021A34A11600321A14A7E
:104820001160002806D000219F4AD16001219F4AD3
:10483000516003E09F490968A04AD160704710B5F4
:1048400000209E4940310860012095498860002081
:104850000861A8495122120189184860FFF74DFFED
:104860000120A549086010BD0020A449086001206E
:104870008107086000BFA14800680028FBD0012024
:104880009F49096848609E490968C86000209C49A2
:1048900009680522120289184860002198480068BA
:1048A000FF304130016096480068FF304130416080
:1048B00093480068FF304130816091480068FF30C4
:1048C0004130C160012000048D49096803221202B1
:1048D0008918486001218A480068FF30FF300230A3
:1048E00001600420864909680522120289180861BE
:1048F0008448006882490968152292018918086075
:10490000FF2005307E4909688918486001207C49EC
:104910000968086000207C490860704701467648B5
:104920000068012801D900207047002906D1774886
:10493000734A10600820764A106013E0012906D1FE
:1049400074486F4A10600920714A10600AE0022919
:1049500006D171486A4A10600A206D4A106001E071
:104960000020E1E70120DFE701464AB26248006823
:10497000012801D900207047042A03DC2720C04306
:10498000824201DA0020F6E78807800F01D000207C
:10499000F1E7484801600120EDE770B504460D4697
:1049A000002C06D0012C05D0022C13D0032C21D1D1
:1049B00018E000BF0020FFF71CFF03203F494031F3
:1049C00008600120374908603849086003204A49D7
:1049D00008600FE02846FFF7C7FF002801D1042038
:1049E00070BD07E02846FFF799FF002801D1042099
:1049F000F6E700BF00BF0020F2E710B5FFF734FF75
:104A0000002803D1FFF792FE002801D0042010BD3A
:104A10000020424908700120374908604048006979
:104A2000102108433E4908610020F0E710B53C48DA
:104A30000069102108433A49086100BF1A48C0685C
:104A400000281DD000201849C860012000F03AF964
:104A500029480068042813D10120144948603148CE
:104A60000068012808D1FFF719FE002804D010487B
:104A70000088401C0E4908802721074800F09BF958
:104A80001F480068FF304130006800284FD00021E7
:104A90001B480068FF3047E0802B0020FC510200DB
:104AA00000F50140001200400011004000100040DD
:104AB000A825002070250020A0250020001500401A
:104AC000942500207F250020902500207E250020B1
:104AD0007D2500207C2500208C25002088250020B5
:104AE0008425002080250020982500209C2500207A
:104AF000B425002000F0014068250020000100409E
:104B000074250020A42500206C2500200080004092
:104B1000782500200090004000A00040AC25002037
:104B200000ED00E0001400404130016086E7694874
:104B30000068FF30413040680028F7D00021654808
:104B40000068FF30413041606348006800F0BAF807
:104B500062480068401C6149086010BDF8B5044611
:104B60000E4615461F465E490D705E4807605E485A
:104B7000066001205D49087000205D4908805D489D
:104B80000068002801D10520F8BD002C03D1FFF7F3
:104B900056FE0020F8E7032C12D156480068012881
:104BA00003D1534908800220EEE7534800880121D1
:104BB000C90308434E490880FFF741FE0020E3E7A0
:104BC0004C480068012804D001204949088002208F
:104BD000DAE745480068272803D9012044490880BE
:104BE000D2E7002044490880012C0BD127214348FB
:104BF00000F0E1F80120FFF7FCFD04203D490860CA
:104C00000020C1E7022C51D135480078252804DD69
:104C10000120374908800320B6E7324800780007B2
:104C2000000F364908702E48007848702D480068FB
:104C3000401C1BD0012804D0022809D003281AD117
:104C40000DE02A462E492D48801C00F08DF817E013
:104C50000F2229462948801C00F0A6F810E05522B2
:104C600029462648801C00F09FF809E03146284676
:104C7000FFF793FE88E701201D490880042083E7A1
:104C800000BF0020FFF7B5FD12480068FF3041303B
:104C90001C4908611C481D495122120189184860AD
:104CA00001201849486002201249086000206BE783
:104CB00001460E4A107800220C4B1A700C4A1288DA
:104CC0000A607047C206D20E01219140104A11605D
:104CD0007047000074250020782500206C250020F6
:104CE000AD250020B0250020B4250020AC250020F3
:104CF000AA25002068250020A8250020802B002060
:104D0000FC51020000F501400010004000F001409D
:104D100080E200E030B50B4601460020202201244D
:104D200009E00D46D5409D4205D31D469540491BDF
:104D30002546954040191546521E002DF1DC30BD28
:104D400070B500242546002801DA012440420029DC
:104D500001DA01254942FFF7DDFFAC4200D04042B5
:104D6000002C00D0494270BD10B5431A934209D2BD
:104D70008318881803E0401E01785B1E1970521ECC
:104D8000F9D210BD03460B439B0703D009E008C9C5
:104D9000121F08C0042AFAD203E00B78491C0370E2
:104DA000401C521EF9D210BDD2B201E00270401C6C
:104DB000491EFBD270470022F6E710B513460A469B
:104DC00004461946FFF7F0FF204610BD421C01784B
:104DD000401C0029FBD1801A704730B504460020E2
:104DE000034600E05B1C934203D2E05CCD5C401BB9
:104DF000F8D030BDF0B51FB488B00B9909980024E5
:104E000048400999C00F490049080991C0070B990A
:104E10000090490049080B9109990898A646084353
:104E200003D00B990A98084303D1002001460DB026
:104E3000F0BD099801244000420D4800410D099839
:104E400024050003000B204309900B980003000B7E
:104E500020430B9050181A49401800220190144624
:104E6000104601E0032801DA034600E003239C46D4
:104E7000C11A0AAE0AE05F0008ADED5B4F00F75BB8
:104E80007D430027AA187C415B1E491C6145F2DD69
:104E9000410004AB5A522104120C0A43240C401C5A
:104EA0000828DFDB0198029000997046019100907C
:104EB000059B049A0799069800F0C6F8B7E700002A
:104EC0000DFCFFFFF0B50C465C4085B0E40FE40735
:104ED00003944C0000266408590094464908024691
:104EE0000296224321D062460A431ED06200570D2B
:104EF0004A000E032303550D012402462C492405C4
:104F0000781B1B0B360B4018234326436146009049
:104F10001C46501AB44103D30098401C009002E094
:104F2000921800985B41002803DA0020014605B082
:104F3000F0BD0020012109050746864611E06446C0
:104F40001D46141BB54106D36546521BB34174463A
:104F500007430C43A646CD0740084908284392184A
:104F60005B4105460D43EAD11046184313D0604615
:104F7000194650407140084303D100220123DB074A
:104F800009E06046101AB34102D20122002302E078
:104F90000122D2435310009874460105381C614128
:104FA000029C039D0019694100F041F8BFE7000031
:104FB000FD0300000EB505490291002100910A464B
:104FC0000B46019100F040F803B000BD330400002F
:104FD0004A0009030123090B1B051943094B10B5AE
:104FE000520D9A4201DA002010BD064B34339A422A
:104FF00003DC9A1A00F00AF810BD034951188840E2
:1050000010BD0000FF030000CDFBFFFF10B5202AFC
:1050100004DB0846203AD040002110BD0B46D340A7
:10502000D0402024A21A91400843194610BD10B563
:10503000002B08DA0024401C614192185B411A439E
:1050400001D14008400010BDF0B51FB482B0054644
:105050000C0003D0084600F08AF802E000F087F860
:105060002030024600902146284600F053F8049B69
:10507000059A04460F4618431143084303D12046BE
:10508000394607B0F0BD1846104317D000984021AC
:105090000A1A18460599FFF7B9FF05460E46009A09
:1050A0000599049800F036F8084301D0012000E08B
:1050B0000020C11705430E432C43374300990E9837
:1050C0006305401A7905E40A0A3000220C43FD0A00
:1050D000002802DA00200146D3E7010510196941D2
:1050E0000C9C0D9D00196941FFF7A1FFC9E7000065
:1050F000064C0125064E05E02046E36807C82B4311
:1051000098471034B442F7D3FAF7DEFF2452020076
:105110004452020010B5202A04DB0146203A914097
:10512000002010BD914020239C1A0346E340194300
:10513000904010BD30B58C180278401C13071B0F2F
:1051400001D10378401C120906D10278401C03E00B
:105150000578401C0D70491C5B1EF9D101E00B70F5
:10516000491C521EFBD1A142E6D3002030BD2021B4
:10517000020C01D010211046020A01D00839104655
:10518000020901D0091F1046820801D0891E10466D
:10519000420801D0881E7047081A704730B4744620
:1051A000641E2578641CAB4204D3635D5B00E31886
:1051B00030BC18471D46F8E702E008C8121F08C1B6
:1051C000002AFAD170477047002001E001C1121F88
:1051D000002AFBD1704700000D1801000F180100D4
:1051E0000A180100B9A521FBBD72C3459ECADC2483
:1051F0000EE5A9E093F3A3B50000406EFFC1FBE804
:105200004C90728BE7B3518963AB232302841872ED
:10521000AA612F3B51A8E53749FBC9CA0C18532C8A
:10522000FD0000004452020000240020B8010000EC
:105230003451020088520200B8250020F00F00000F
:10524000C8510200370024F400FFFF82084603091A
:105250000200104203042A03090209FFB9A521FB39
:10526000BD72C34501235204458000400855080122
:105270000001C203420337294176715B064655554A
:08528000550003031371020045
:020000041000EA
:04100400FFFFFFFFEC
:020000041000EA
:04100800FFFFFFFFE8
:020000041000EA
:04108000FFFFFFFF70
:04000005000200C134
:00000001FF
